:1000000000000220AD010000D9010000D90100006C
:10001000D9010000D9010000D9010000D901000078
:10002000D9010000D9010000D9010000D901000068
:10003000D9010000D9010000D9010000D901000058
:10004000D9010000D9010000D9010000D901000048
:10005000D9010000D9010000D9010000D901000038
:10006000D9010000D9010000D9010000D901000028
:10007000D9010000D9010000D9010000D901000018
:10008000D9010000D9010000D9010000D901000008
:1000900035220000D9010000D9010000D90100007B
:1000A000D9010000D9010000D9010000D9010000E8
:1000B000D9010000D9010000D9010000D9010000D8
:1000C000D9010000D9010000D9010000D9010000C8
:1000D000D9010000D9010000D901000010B5054C7C
:1000E000237833B9044B13B10448AFF300800123E4
:1000F000237010BD7800002000000000C827000019
:10010000084B10B51BB108480849AFF300800848F8
:10011000036803B910BD074B002BFBD0BDE81040AE
:10012000184700BF00000000C82700007C00002026
:100130007400002000000000154B002B08BF134B7B
:100140009D46A3F5803A00218B460F461348144A7A
:10015000121A02F009FA0F4B002B00D098470E4BF1
:10016000002B00D098470020002104000D000D480E
:10017000002802D00C48AFF3008002F0CFF9200035
:10018000290002F095F902F0B5F900BF000008005F
:1001900000000220000000000000000078000020A5
:1001A000B00000200000000000000000064880476A
:1001B0000649074A074B9A42BEBF51F8040B42F862
:1001C000040BF8E7FFF7B8FF59030000D42700003D
:1001D0000000002078000020FEE700BF80B400AFE0
:1001E000044BDB6C1B0EDBB21846BD465DF8047B8E
:1001F000704700BFB081E00F80B582B000AF00F063
:100200001FF87860074B5B6803F00F031A467B68A2
:10021000D3407B60044A7B6813607B6818460837CC
:10022000BD4680BD00800C400800002080B400AFB7
:10023000024B1846BD465DF8047B7047006CDC023B
:1002400080B582B000AF334BDB6A03F47053B3F573
:10025000805F0AD0B3F5005F03D0B3F5006F08D01C
:100260000BE02D4B1B687B6047E04FF400437B6045
:1002700043E02A4B1B687B603FE0264BDB6803F4BE
:10028000E063B3F5007F1BD0B3F5007F05D8002BEA
:1002900024D0B3F5807F16D02BE0B3F5806F09D062
:1002A000B3F5A06F03D0B3F5407F06D021E01C4B1F
:1002B0007B6021E01B4B7B601EE01B4B7B601BE0E7
:1002C0001A4B7B6018E0FFF789FF0346122B02D917
:1002D000174B7B6010E0174B7B600DE0FFF77EFF54
:1002E0000346122B02D9144B7B6005E0134B7B6055
:1002F00002E000237B6000BF00BF064B1B6803F4D5
:10030000E0339B0B01337A68B2FBF3F318460837EE
:10031000BD4680BD00800C4004000020000000208D
:10032000003FAB01406F4001809FD500C0D8A700BF
:1003300040B56400C0CF6A00804F120040420F00F9
:1003400080B400AF034B1B681846BD465DF8047BC4
:10035000704700BF0000002080B400AFBD465DF8CC
:10036000047B704780B400AF4FF400431846BD468D
:100370005DF8047B704700BF80B400AF4FF47A7320
:100380001846BD465DF8047B704700BF80B400AFDF
:10039000034B1B681846BD465DF8047B704700BFE1
:1003A0000400002080B483B000AF0346FB71FB79EA
:1003B000002B03D0054B01221A6602E0034B0022FA
:1003C0001A660C37BD465DF8047B704700A00840F4
:1003D00080B483B000AF786000BF054B5A6E7B6875
:1003E0001340002BF9D10C37BD465DF8047B7047F4
:1003F00000A0084080B483B000AF78600549054B89
:100400009A6A7B68DB4313408B620C37BD465DF80C
:10041000047B704700A0084080B500AF0020284949
:10042000002201F055FA01202549002201F050FA7E
:1004300002202349002201F04BFA03202049002228
:1004400001F046FA04201E49002201F041FA05207D
:100450001B49002201F03CFA06201949002201F054
:1004600037FA07201649002201F032FA0020FF2156
:10047000002201F0EBFA0120FF21002201F0E6FA50
:100480000220FF21002201F0E1FA0320FF210022D7
:1004900001F0DCFA0420FF21002201F0D7FA052048
:1004A000FF21002201F0D2FA0620FF21002201F0F4
:1004B000CDFA0720FF21002201F0C8FA80BD00BF5D
:1004C00000F00FF080B500AF07202649002201F0B0
:1004D000FFF906202449002201F0FAF905202249FB
:1004E000002201F0F5F904201F49002201F0F0F983
:1004F00003201D49002201F0EBF902201A490022D5
:1005000001F0E6F901201849002201F0E1F900208C
:100510004FF02041002201F0DBF9072007210022E3
:1005200001F094FA06200721002201F08FFA05203D
:100530000721002201F08AFA04200721002201F09D
:1005400085FA03200721002201F080FA022007210A
:10055000002201F07BFA01200721002201F076FA47
:1005600000BF80BD00E00F5000E00FF080B582B00A
:1005700000AF0346FB712548012100F03BFC2448F5
:10058000032100F039FE2348402100F01DFB01202B
:1005900000F080FF2048012100F02CFC4FF0FF30DC
:1005A000FFF728FF1D4801F023F80820012101F082
:1005B0007DF81020012101F079F88020012101F05F
:1005C00075F84FF48070012101F070F84FF400705D
:1005D000012101F06BF8FB79002B0DD04FF4402086
:1005E00001F0F2FA4FF4803001F03EF80C4A0C4B67
:1005F000DB6F43F00803D367FFF70EFF4FF0FF30C8
:10060000FFF7E6FE0837BD4680BD00BF004302008D
:1006100002001A006000260000362800942700001F
:1006200000800C4080B586B000AF78604FF0FF309E
:10063000FFF7CEFE0120FFF7B5FEFFF743FF0023D3
:10064000BB7536E00023FB752DE0BA7DF97D1D48B2
:100650001346DB009B1A9B0003440B4408339B7931
:100660003B61BA7DF97D17481346DB009B1A9B005E
:100670000B4403441B78FB60BB7D5B007A6813442A
:100680001B881A46FB7D42FA03F303F00103002B9B
:1006900006D0FA683B6910461946012201F026F897
:1006A000FB7D0133FB75FB7D0D2BCED9BB7D01336B
:1006B000BB75BB7D062BC5D90020FFF773FE18372D
:1006C000BD4680BD9425000080B487B000AFF860BF
:1006D000B9607A60FB6803F10473DA00BB68134405
:1006E0009B007B617B697A681A601C37BD465DF8A8
:1006F000047B704780B485B000AF786039607B6858
:1007000003F10473DA003B6813449B00FB60FB6851
:100710001B6818461437BD465DF8047B704700BF60
:1007200080B485B000AF78607B68002B04D07B6814
:10073000B3F5004F00D800BF7B68B3FA83F3C3F171
:100740001F03FB60FB6818461437BD465DF8047B49
:10075000704700BF80B400AF044BDB6C1B0EDBB2F4
:100760001846BD465DF8047B704700BFB081E00FBE
:1007700080B400AF054BDB6C03F47F031B0CDBB2D2
:100780001846BD465DF8047B704700BFB081E00F9E
:1007900080B582B000AFFFF7EBFF03464A2B04D0D1
:1007A000792B02D0482B21D022E0144B1B699BB23D
:1007B00003F03F039BB21B02FB80104B9B6903F0CD
:1007C000F0039AB2FB881343FB800C4BDB6903F008
:1007D000F0031B099AB2FB881343FB80FB88B3F537
:1007E000017F01D3064B04E0064B02E0054B00E01D
:1007F000002318460837BD4680BD00BFD0FF0FE07C
:1008000000366E010048E80180B584B000AF786022
:100810000123FB60FFF7BCFF02467B689A4204D3CA
:100820000023FB600023BB600BE0FFF7B1FF034632
:100830005A007B689A4202D30123BB6001E0022385
:10084000BB6008481E21FA68FFF73EFF0549054BCB
:100850005B6823F48072BB681B0213434B60103744
:10086000BD4680BD00800C4080B582B000AF054819
:100870001E21FFF73FFF78607B6818460837BD46AA
:1008800080BD00BF00800C4080B582B000AF214B1E
:100890005B6903F4E063B3F5007F1CD0B3F5007F20
:1008A00005D8002B25D0B3F5807F1FD02AE0B3F503
:1008B000C06F24D0B3F5E06F1ED0B3F5407F21D1D7
:1008C000FFF748FF0346122B02D9134B7B601CE055
:1008D000124B7B6019E0FFF73DFF0346122B02D954
:1008E0000F4B7B6011E00F4B7B600EE00E4B7B608B
:1008F0000BE00E4B7B6008E00D4B7B6005E00D4B81
:100900007B6002E000237B6000BF7B6818460837ED
:10091000BD4680BD00800C40804F120040420F0059
:1009200040B56400C0CF6A00C0D8A700809FD50042
:10093000406F4001003FAB0180B582B000AF0D4871
:1009400000F0ACFB0346FB70FB78072B05D0092BAE
:1009500007D1FFF775FC786006E0FFF795FF786038
:1009600002E000237B6000BF7B6818460837BD4665
:1009700080BD00BF06000C0080B485B000AF786079
:100980003960284BDB6B002B14BF01230023BB72A3
:10099000244B41F67132DA63224B5B6803F00703A4
:1009A000FB60FB68012B01D9042B02D10023FB72F1
:1009B00002E00123FB7200BF7B681B4A934207D908
:1009C000FB7A002B01D0052300E00423FB6016E036
:1009D0007B68154A93420BD87B68144A934207D927
:1009E000FB7A002B01D0032300E00123FB6006E02B
:1009F000FB7A002B01D0022300E00023FB600949B1
:100A0000084B5B6823F00702FB6813434B60BB7A1B
:100A1000002B02D0034B0022DA631437BD465DF889
:100A2000047B704700000C400048E8010024F400FB
:100A300080B500AFFFF7FAFB034618460021FFF729
:100A40009BFF80BD80B582B000AF78603960786868
:100A50003968FFF791FF0837BD4680BD90B585B076
:100A600000AF78600023BB607B68344A934203D0B8
:100A7000334A934200D000E000BF786800F00EFBDC
:100A80000346FB607B682D4A934203D02C4A934275
:100A900006D00CE02B4B9B6A03F00303FB6006E0DF
:100AA000284B9B6A03F00C039B08FB6000BFFB68AC
:100AB000032B3AD801A252F823F000BFF30A00003A
:100AC000CD0A0000D50A0000DD0A0000FFF74AFC4D
:100AD000B8602DE0FFF75AFCB86029E0FFF78CFB07
:100AE0000446FFF7C1FE0346013324FA03F3BB605B
:100AF0001EE00023BB607B68104A934203D07B68F2
:100B00000F4A934210D10F4B9A6A7B680B498B4274
:100B100001D1102300E0142322FA03F3002B03D0A9
:100B2000FFF72AFCB86003E002E00023BB6000BFCF
:100B3000BB6818461437BD4690BD00BF02001A00BE
:100B400003001C0000800C4080B483B000AF7860CC
:100B5000094B5B6D03F00103002B00D006E000BFE2
:100B6000054B1A6D7B681340002BF9D10C37BD463D
:100B70005DF8047B704700BF00800C4080B582B0F8
:100B800000AF104800F08AFA0346FB70FB78032B95
:100B900007D0092B09D0022B0BD1FFF7F7FB7860A8
:100BA0000AE0FFF7DFFB786006E0FFF749FB7860BB
:100BB00002E000237B6000BF7B6818460837BD4613
:100BC00080BD00BF07232200B0B584B000AF7860BD
:100BD00039607B681B0903F00F03FB60FB68013B76
:100BE000062B00F2F48001A252F823F0090C000059
:100BF000CF0D0000CF0D00003F0C0000690C00007D
:100C0000B70C00007B0D00003B68002B03D03B6855
:100C1000082B00D800BFFFF70BFF6F496E4B1B6816
:100C200023F4E0323B68013B9B0313430B60FFF767
:100C3000E3FAB860B8680021FFF704FFC8E03B683A
:100C4000002B04D03B68B3F5007F00D800BF3868A4
:100C5000FFF766FD386060495F4B9B6823F00F0229
:100C60003B6813438B60B3E03B68002B04D03B68C8
:100C7000B3F5007F00D800BFFFF7DAFEFFF7E0FA18
:100C800002463B68B2FBF3F31846FFF7BDFD386838
:100C9000FFF746FD386050494F4B5B6823F00F0269
:100CA0003B6813434B60FFF7A7FAB860B8680021B0
:100CB000FFF7C8FE8CE07B68484A93421ED0474A43
:100CC000934203D8464A934207D055E0454A93429F
:100CD00025D0454A93423FD04EE00420FFF734FF31
:100CE0003868FFF71DFD38603B493B4B9B6E23F096
:100CF000F0023B681B0113438B663DE00420FFF7C5
:100D000023FF3868FFF70CFD38603349324B9B6E88
:100D100023F470623B681B0213438B662CE03B6834
:100D20000F2B03D93B68802B00D800BF0420FFF7AE
:100D30000BFF3868FFF7F4FC3860274D264B9B6E9D
:100D400023F440541020FFF7EBFC02463B689B1A4B
:100D50001B032343AB660FE00420FFF7F5FE386862
:100D6000FFF7DEFC38601C491B4B9B6E23F003022F
:100D70003B6813438B6600BF2AE07B681B4A9342A3
:100D800003D01B4A934210D020E04020FFF7DCFE46
:100D90003868FFF7C5FC38600F490F4B1B6F23F015
:100DA00003023B6813430B6710E04020FFF7CCFEC3
:100DB0003868FFF7B5FC38600749074B1B6F23F015
:100DC00030023B681B0113430B6700BF00E000BF0C
:100DD0001037BD46B0BD00BF00800C406026140037
:100DE000601610006000260060062A0070071600DA
:100DF0007017180080B586B000AF78600B46FB70A6
:100E000000233B617B681B0A03F00F03013B092BA6
:100E100045D801A252F823F0550E00005B0E0000E9
:100E2000410E00009F0E00009F0E0000610E0000AA
:100E30006B0E00009F0E00009F0E0000750E00005C
:100E4000194B7B61194800F03DF803461846FFF73F
:100E5000DBFC12E0164B7B610FE0164B7B610CE074
:100E6000154B7B6101233B6107E0144B7B61102331
:100E70003B6102E0124B7B6100BF7B681B0B03F000
:100E80001F03FB603B69002B02D03869FFF75CFE53
:100E9000FB787869F9681A46FFF716FC00E000BF96
:100EA0001837BD4680BD00BF40800C4000430200A3
:100EB00008800C4044800C4058800C4060800C40FE
:100EC00078800C4090B585B000AF78607B6803F403
:100ED0007813B3F5B01F00F0AB80B3F5B01F1AD88C
:100EE000B3F5402F00F0BF80B3F5402F08D8B3F51D
:100EF000003F3CD0B3F5802F2DD0002B27D0BEE093
:100F0000B3F5801F3CD0B3F5A01F47D0B3F5602FD9
:100F100000F0AD80B3E0B3F5081F00F0AC80B3F58E
:100F2000081F0AD8B3F5D01F25D0B3F5E01F7AD03B
:100F3000B3F5C01F00F08980A1E0B3F5201F4ED0AB
:100F4000B3F5281F62D0B3F5181F35D097E0FFF72F
:100F500077F9F86096E0FFF773F9F8604C4B9B68FF
:100F600003F00F031A46FB68D340FB608AE0FFF7EB
:100F700043F9F86086E04748FFF770FDF86081E0CC
:100F80004448FFF76BFDF860414B9B6E03F0F003A4
:100F90001B091A46FB68D340FB6073E03D48FFF72E
:100FA0005DFDF8603A4B9B6E03F470631B0A1A46B2
:100FB000FB68D340FB6065E03648FFF74FFDF86003
:100FC000334B9B6E03F440531C0B1020FFF7A8FB20
:100FD000034623441A46FB68D340FB6052E02D4889
:100FE000FFF73CFDF8602A4B9B6E03F440531B0B4C
:100FF0001A46FB68D340FB60254BDB6F03F0070309
:101000000133FA68B2FBF3F3FB603BE02148FFF7E2
:1010100025FDF8601E4B9B6E03F003031A46FB6828
:10102000D340FB602EE01C48FFF718FDF86029E074
:101030001948FFF713FDF860154B1B6F03F003030E
:101040001A46FB68D340FB601CE01348FFF706FD1F
:10105000F8600F4B1B6F03F030031B091A46FB6847
:10106000D340FB600EE0FFF767FCF8600AE0FFF793
:101070000BFCF86006E0FFF781FDF86002E000235A
:10108000FB6000BFFB6818461437BD4690BD00BF2B
:1010900000800C4002001A0003001C0080B485B0E0
:1010A00000AF78600123FB737B6803F00F03BB6024
:1010B000BB68013B062B00F2938001A252F823F09B
:1010C000DD100000131100004F110000E1110000BD
:1010D000E11100008B110000AD110000454BDB6AEF
:1010E00003F47053B3F5805F09D0B3F5005F03D00C
:1010F000B3F5006F06D008E00223FB7308E003237A
:10110000FB7305E00423FB7302E00523FB7300BFC0
:1011100069E0384B9B6A03F00303022B06D0032BD4
:1011200007D0012B08D10323FB730FE00223FB73CD
:101130000CE00623FB7309E02E4B9B6A03F480331B
:10114000002B02D00A23FB7300E000BF4BE0294BC9
:101150009B6A03F00C03082B06D00C2B07D0042B42
:1011600008D10323FB730FE00223FB730CE006237B
:10117000FB7309E01F4B9B6A03F48013002B02D022
:101180000A23FB7300E000BF2DE01A4B1B6803F03D
:101190008053002B03D0B3F1805F03D023E00723FB
:1011A000FB7302E00923FB7300BF1CE0114BDB6AF9
:1011B00003F46033B3F5803F08D0B3F5003F08D0A7
:1011C000B3F5004F08D10923FB7308E00223FB733A
:1011D00005E00323FB7302E00123FB7300BF02E081
:1011E0000023FB7300BFFB7B18461437BD465DF838
:1011F000047B704700800C4080B588B000AF7860F9
:101200000B46FB700323FB610323FB7600233B614A
:101210007B6803F00F03FB60FB68013B062B00F2C9
:10122000288101A252F823F0451200001B13000090
:101230001B1300007314000073140000E11300007E
:101240000B140000FB78023B082B00F2148101A272
:1012500052F823F079120000831200008D12000072
:10126000CF120000771400007714000077140000FC
:1012700077140000771400000423FB610023FB7641
:1012800031E00323FB610123FB762CE00223FB61A9
:101290000223FB76FFF77CFA034601331846FFF77B
:1012A000B3FAFFF74DF80246764B9A4206D9764AD2
:1012B000754B1B6843F06003136014E0724A724B75
:1012C0001B6823F0600343F0200313600BE001234D
:1012D000FB610323FB76FFF75BFA034601331846F5
:1012E000FFF792FA00BFFB7E18460121012200F0B1
:1012F000EFF8FFF79DFB644AFB6953626348FFF711
:10130000E1FD03461846FFF77FFAFEF775FFB86068
:10131000B8680021FFF796FBB0E0FB78013B092B92
:1013200000F2AB8001A252F823F000BF5513000079
:101330005B1300006B1300007B1400007B140000A3
:101340007B1300007B1400007B1400007B14000062
:101350009713000000237B6122E00020012101227D
:1013600000F0B6F802237B611AE00120012101227E
:1013700000F0AEF801237B6112E0FEF73DFFB8609C
:10138000B868FFF741FA424804210122FFF79CF9AF
:1013900003237B6104E000237B6101233B6100BFE9
:1013A000FB68022B0DD13849374B9B6A23F48033FD
:1013B00023F003037A691A433B691B0413438B62CE
:1013C0005CE03149304B9B6A23F4801323F00C031B
:1013D0007A6992001A433B691B0513438B624DE007
:1013E000FB78072B02D0092B07D047E0264A264B73
:1013F0001B6823F08053136006E0234A224B1B68CE
:1014000043F08053136000BF38E0FB78032B14D007
:10141000092B22D0022B00D030E000200121012234
:1014200000F056F8184B40225A6200BF164BDB6A98
:1014300003F48033002BF9D01AE0012001210122AE
:1014400000F046F8104B60225A6200BF0E4BDB6A78
:1014500003F40033002BF9D00AE00B4B20225A6230
:1014600000BF094BDB6A03F40043002BF9D000BF37
:1014700004E000BF02E000BF00E000BF2037BD462F
:1014800080BD00BF0048E80100800C40004302001E
:1014900040800C4080B483B000AF78600B4B9B6DF4
:1014A00003F00803002B00D00BE07B6803F0070378
:1014B0007B600649054BDB6F23F007027B68134313
:1014C000CB670C37BD465DF8047B704700800C404D
:1014D00080B586B000AF0346FB710B46BB71134667
:1014E0007B71FB79042B48D801A252F823F000BF8E
:1014F0003D1500002F150000131500000515000014
:101500002115000001233B610223FB6001237B6165
:101510001DE004233B610823FB6003237B6116E08D
:1015200010233B612023FB6005237B610FE04023F8
:101530003B618023FB6007237B6108E04FF48073ED
:101540003B614FF40073FB6009237B6100BFBB79F3
:10155000002B0ED00B4A3B6913627B79002B0DD018
:1015600000BF09487969FFF7C5F80346002BF8D09A
:1015700004E0044AFB68136200E000BF1837BD4670
:1015800080BD00BF00800C402C800C4080B483B034
:1015900000AF0346FB71FB79002B06D0084A084BCD
:1015A0001B6843F00103136005E0054A044B1B6808
:1015B00023F0010313600C37BD465DF8047B7047D0
:1015C00000A0084080B487B000AFF860B9607A60CE
:1015D000FB6803F10473DA00BB6813449B007B6172
:1015E0007B697A681A601C37BD465DF8047B7047DA
:1015F00080B584B000AF78601A4B5B68FB60002058
:10160000FFF7C4FFFB6823F4830323F01F03FB6091
:101610007B685B68FA681343FB607B681B7A1A4639
:10162000FB681343FB607B685B7A1A46FB681343D5
:10163000FB607B68DB68FA681343FB607B681B8A8E
:101640001A46FB681343FB60064AFB6853607B68DD
:101650001B78002B02D00120FFF798FF1037BD4602
:1016600080BD00BF00A0084080B485B000AF7860A6
:101670000D4B5B68FB60FB6823F48033FB607B6889
:10168000002B08D0B3F5803F00D005E0FB6843F4A1
:101690008033FB6000E000BF034AFB6853601437EF
:1016A000BD465DF8047B704700A0084080B483B05D
:1016B00000AF03460A46FB8013467B717B79002B03
:1016C00006D00949084B9A68FB8813438B6006E0F3
:1016D0000549054B9A68FB88DB4313408B600C3748
:1016E000BD465DF8047B704700A0084080B584B01B
:1016F00000AFF860B9601346FB71FB68072B00F27E
:10170000C38001A252F823F02917000055170000EA
:1017100081170000AD170000D91700000518000060
:10172000311800005D180000BB681F2B07DCBA6889
:10173000FB79574811461A46FFF744FFA5E0BB68FE
:10174000203BBB60BA68FB79524811461A46FFF746
:1017500039FF9AE0BB681F2B07DCBA68FB794E485B
:1017600011461A46FFF72EFF8FE0BB68203BBB6097
:10177000BA68FB79494811461A46FFF723FF84E00F
:10178000BB681F2B07DCBA68FB79454811461A462F
:10179000FFF718FF79E0BB68203BBB60BA68FB79B4
:1017A000404811461A46FFF70DFF6EE0BB681F2B3D
:1017B00007DCBA68FB793C4811461A46FFF702FF7E
:1017C00063E0BB68203BBB60BA68FB7937481146D1
:1017D0001A46FFF7F7FE58E0BB681F2B07DCBA6814
:1017E000FB79334811461A46FFF7ECFE4DE0BB6823
:1017F000203BBB60BA68FB792E4811461A46FFF7BA
:10180000E1FE42E0BB681F2B07DCBA68FB792A487F
:1018100011461A46FFF7D6FE37E0BB68203BBB6097
:10182000BA68FB79254811461A46FFF7CBFE2CE033
:10183000BB681F2B07DCBA68FB79214811461A46A2
:10184000FFF7C0FE21E0BB68203BBB60BA68FB79B4
:101850001C4811461A46FFF7B5FE16E0BB681F2B61
:1018600007DCBA68FB79184811461A46FFF7AAFE4A
:101870000BE0BB68203BBB60BA68FB79134811469C
:101880001A46FFF79FFE00E000BF1037BD4680BD3F
:1018900040A0084050A0084044A0084054A0084080
:1018A00048A0084058A008404CA008405CA0084050
:1018B000CCA00840B4A00840D0A00840B8A0084080
:1018C000D4A00840BCA00840D8A00840C0A0084050
:1018D00080B487B000AFF860B9607A60FB68072B0E
:1018E00000F2AC8001A252F823F000BF0D190000F5
:1018F0003119000055190000791900009D190000E8
:10190000C5190000ED190000151A00004E4B1B6CA4
:101910007B61BB68DB437A6913407B61BA687B6893
:1019200013407A6913437B61474A7B69136486E0FD
:10193000454B5B6C7B61BB68DB437A6913407B6121
:10194000BA687B6813407A6913437B613E4A7B69BE
:10195000536474E03C4B9B6C7B61BB68DB437A69EE
:1019600013407B61BA687B6813407A6913437B61DB
:10197000354A7B69936462E0334BDB6C7B61BB6807
:10198000DB437A6913407B61BA687B6813407A69EC
:1019900013437B612C4A7B69D36450E02A4BD3F814
:1019A000CC307B61BB68DB437A6913407B61BA68EA
:1019B0007B6813407A6913437B61234A7B69C2F8D1
:1019C000CC303CE0204BD3F8D0307B61BB68DB43AC
:1019D0007A6913407B61BA687B6813407A69134364
:1019E0007B61194A7B69C2F8D03028E0164BD3F8E6
:1019F000D4307B61BB68DB437A6913407B61BA6892
:101A00007B6813407A6913437B610F4A7B69C2F894
:101A1000D43014E00C4BD3F8D8307B61BB68DB4387
:101A20007A6913407B61BA687B6813407A69134313
:101A30007B61054A7B69C2F8D83000E000BF1C37E3
:101A4000BD465DF8047B704700A0084080B487B0B5
:101A500000AFF860B9607A60FB68072B00F2AC80D9
:101A600001A252F823F000BF891A0000AD1A00004D
:101A7000D11A0000F51A0000191B0000411B0000DC
:101A8000691B0000911B00004E4B1B6D7B61BB6806
:101A9000DB437A6913407B61BA687B6813407A69DB
:101AA00013437B61474A7B69136586E0454B5B6D59
:101AB0007B61BB68DB437A6913407B61BA687B68F2
:101AC00013407A6913437B613E4A7B69536574E036
:101AD0003C4B9B6D7B61BB68DB437A6913407B6148
:101AE000BA687B6813407A6913437B61354A7B6926
:101AF000936562E0334BDB6D7B61BB68DB437A69E6
:101B000013407B61BA687B6813407A6913437B6139
:101B10002C4A7B69D36550E02A4BD3F8B4307B6103
:101B2000BB68DB437A6913407B61BA687B6813400A
:101B30007A6913437B61234A7B69C2F8B4303CE085
:101B4000204BD3F8B8307B61BB68DB437A69134024
:101B50007B61BA687B6813407A6913437B61194AD9
:101B60007B69C2F8B83028E0164BD3F8BC307B61F3
:101B7000BB68DB437A6913407B61BA687B681340BA
:101B80007A6913437B610F4A7B69C2F8BC3014E069
:101B90000C4BD3F8C0307B61BB68DB437A691340E0
:101BA0007B61BA687B6813407A6913437B61054A9D
:101BB0007B69C2F8C03000E000BF1C37BD465DF84D
:101BC000047B704700A0084080B483B000AF786009
:101BD0000649064B5B6823F4E0127B6813434B60B5
:101BE0000C37BD465DF8047B704700BF00A008407D
:101BF00080B485B000AF7860194B5B69DBB203F04D
:101C00000F03DBB29B00FB73154B1B6903F0C00392
:101C10009B09DAB2FB7B1343FB737B68FA7B9A70F8
:101C20000F4B1B69DBB203F03F03DAB27B685A70DB
:101C30000B4B9B69DBB223F00F03FB73084BDB6993
:101C400003F0F0031B09DAB2FB7B1343FB737B68E1
:101C5000FA7B1A701437BD465DF8047B704700BFED
:101C6000D0FF0FE080B586B000AFF860B9607A6051
:101C7000FB70BB68002B03D12448FFF723F9B86041
:101C8000FB78202B0CD0202B02DC002B05D03AE077
:101C9000402B08D0602B09D035E010237B6108E091
:101CA00008237B6105E006237B6102E004237B615E
:101CB00000BFBB689A007B69796801FB03F35B088E
:101CC00013443B617B697A6802FB03F33A69B2FB18
:101CD000F3F33B613B69043B3B613B699B013B6127
:101CE0003A690B4B13403B61FB681B6823F06002B1
:101CF000FB681A60FB681A68FB781A43FB681A6075
:101D0000FB683A695A611837BD4680BD40810400BE
:101D1000C0FF1F0080B582B000AF786039607B687B
:101D2000244A93420FD07B68234A93420BD07B68AE
:101D3000224A934207D07B68214A934203D07B68B2
:101D4000204A934200D100BF786800F06DF83B68EC
:101D50009B7C002B05D07B681B6843F080427B682E
:101D60001A603B68DB7C002B07D03B681B7D43F08F
:101D70001003DBB21A467B689A653B685B7B1A46A8
:101D80003B681B8A13433A68D2891A437B685A60BE
:101D90003B6859683B689A683B681B7B7868FFF72B
:101DA00061FF3B681B781A467B68DA600837BD46DE
:101DB00080BD00BF00C0004000C4004000C800401B
:101DC00000E0004000E4004080B485B000AF7860DF
:101DD00039607B689B6823F07703FB603B681B7866
:101DE000002B03D0FB6843F04003FB603B689B780B
:101DF000002B03D0FB6843F02003FB603B685B785B
:101E0000002B03D0FB6843F01003FB603B68DB78DA
:101E10001A46FB681343FB607B68FA689A601437C4
:101E2000BD465DF8047B704780B483B000AF786036
:101E30007B68244A93420FD07B68234A93420BD09D
:101E40007B68224A934207D07B68214A934203D0A1
:101E50007B68204A934200D100BF7B6840F6AA62AB
:101E6000DA607B6800221A607B6841F205025A60E2
:101E70007B6800229A607B6800225A617B6800229E
:101E8000DA647B6841F6F9729A647B6800225A65CD
:101E90007B680C4A934202D17B6800221A657B68FA
:101EA00000229A657B68084A934203D07B68074A00
:101EB000934202D17B680022DA650C37BD465DF89B
:101EC000047B704700C0004000C4004000C80040D0
:101ED00000E0004000E4004080B483B000AF7860D0
:101EE0000B46FB7000BF7B681B6903F04003002BAF
:101EF000F9D0FA787B685A630C37BD465DF8047BED
:101F0000704700BF80B500AF00F006F800F01EF883
:101F100000F05CF880BD00BF80B500AF1120052146
:101F2000FFF76AF906480121FEF764FF0548012121
:101F3000FEF760FF04480121FEF75CFF80BD00BF93
:101F4000408104000032040000D20400B0B588B023
:101F500000AF1C4B07F108041D460FCD0FC495E8D8
:101F6000030084E803004FF4E1333B6105237B75F4
:101F70000023FB824FF480533B8300233B750023F7
:101F8000BB760023FB7600233B7707F108030E485E
:101F90001946FFF7BFFE00233B7100237B7100232E
:101FA000BB710023FB7100237B710023BB710023F5
:101FB000FB713B1D04481946FFF706FF2037BD465D
:101FC000B0BD00BFA827000000E0004080B400AF13
:101FD000314A314BDB6A23F0F00343F01003D36244
:101FE0002D4A2D4BDB6A23F4706343F48073D36274
:101FF000294A294BD3F89C3043F00103C2F89C30A6
:10200000254A254BD3F8943023F00F0343F0040303
:10201000C2F89430204A204BD3F8943023F0F003D8
:1020200043F01003C2F894301B4A1B4BD3F8943092
:1020300023F4706343F48063C2F89430164A164B5D
:10204000D3F8943023F4704343F48043C2F89430BF
:10205000114A114BD3F8C03043F08003C2F8C030AE
:102060000D4A0D4BD3F8B83023F0704343F0804352
:10207000C2F8B830094A094B5B6D23F4E06343F4BE
:1020800080735365054A054B5B6D43F0030353654D
:10209000BD465DF8047B70470060004000E00040F2
:1020A00080B483B000AF0346FB71084997F907304D
:1020B0005B09FA7902F01F02012000FA02F241F8EE
:1020C00023200C37BD465DF8047B704700E100E03B
:1020D00080B400AF044BDB6C1B0EDBB21846BD4670
:1020E0005DF8047B704700BFB081E00F80B483B01F
:1020F00000AF03463960FB71FB79002B0DD0FB79F3
:10210000012B0AD0FB79022B07D0FB79032B04D0DB
:10211000FB79042B01D0FB79052B0949FA793B683F
:10212000012000FA03F318461346DB0013449B001A
:102130000B44103318600C37BD465DF8047B7047C4
:102140000060004080B483B000AF03463960FB718B
:10215000FB79002B0DD0FB79012B0AD0FB79022BE8
:1021600007D0FB79032B04D0FB79042B01D0FB793A
:10217000052B0949FA793B68012000FA03F3184658
:102180001346DB0013449B000B44183318600C37D4
:10219000BD465DF8047B70470060004080B582B0AA
:1021A00000AFFFF795FF0346FB713B1D1846FFF795
:1021B0001FFDFB790F2B0AD93B79022B07D9054A62
:1021C000044B1B6823F0500343F0100313600837DF
:1021D000BD4680BDC0800C4080B483B000AF786045
:1021E00039607B68DA6C3B681A437B68DA640C37C9
:1021F000BD465DF8047B704780B483B000AF786063
:102200007B68DB69DBB218460C37BD465DF8047BA2
:10221000704700BF80B400AF054A054B1B6923F02F
:102220000403136130BFBD465DF8047B704700BFF7
:1022300000ED00E080B500AF0548FFF7DDFF034685
:102240001A46044B1A70044B01221A7080BD00BF5D
:1022500000E00040AF0000209400002080B483B074
:1022600000AF0346FB7197F90730012B1CD1214BBE
:102270001B680522934238D01E4B1A681E4911F87C
:1022800012306FF3C30301F812301A4B1B6801338D
:10229000184A1360174B1A68174911F8123043F0A7
:1022A000080301F8123020E097F90730B3F1FF3F3F
:1022B0001BD1104B1B680022934216D00D4B1A689D
:1022C0000D4911F812306FF3C30301F81230094BB6
:1022D0001B68013B074A1360064B1A68064911F850
:1022E000123043F0080301F812300C37BD465DF898
:1022F000047B7047A80000209800002080B483B0C1
:1023000000AF3A4B1B683A4A5B0013445B78C3F357
:102310000013DBB2002B02D10023FB712BE0334B07
:102320001B68334A5B0013445B78C3F30013DBB2D2
:10233000012B02D10123FB711DE02C4B1B682C4AA1
:102340005B0013445B78C3F30003DBB2012B12D1B3
:102350000223FB71254B1B68254A12F81330C3F387
:102360000003DBB2012B03D1224B01221A7002E0E1
:10237000204B00221A70FB79002B02D0012B0CD0CD
:102380002EE01A4B1B681A4A5B0013445A7842F03D
:1023900010025A700123FB7122E0144B1B68144A8F
:1023A0005B0013445A786FF304125A700F4B1B688A
:1023B0000F4A5B0013445A7842F001025A700B4BEB
:1023C0001B680B4A12F81330C3F30003DBB2012B76
:1023D00003D1084B01221A7002E0064B00221A704A
:1023E0000C37BD465DF8047B704700BFA800002095
:1023F00098000020AC00002080B500AF274B0022E1
:102400001A70274B1B78DBB226481946FFF764FD8C
:10241000234B1B78DBB26A2B07D06C2B09D0622BC5
:102420000BD1214B02221A700AE01F4B01221A70B5
:1024300006E01D4B03221A7002E01B4B00221A70AB
:10244000194B1B78022B04D0032B19D0012B0CD075
:1024500023E004200321FFF775FE4FF0FF30FFF764
:10246000FDFE1248FEF7DEF817E004200221FFF718
:1024700069FE0120FFF7F2FE0C48FEF7D3F80CE0EE
:1024800004200221FFF732FE04200321FFF72EFE75
:10249000FFF734FF0548FEF7C5F880BD9400002023
:1024A000AF00002000E00040AD00002098000020B8
:1024B00080B500AFFFF772FEFFF724FD0B48042143
:1024C000FFF78AFE1420FFF7EBFD04200221FFF73F
:1024D0000DFE0020FEF74AF8FFF79CFE044B1B7828
:1024E000DBB2002B01D0FFF787FFF5E700E00040EB
:1024F0009400002008B5074B044613B10021AFF348
:102500000080054B1868836A03B19847204600F0A5
:1025100033F800BF00000000C42700000E4B70B568
:102520001E460E4C0025E41AA410A54204D056F80D
:10253000253098470135F8E700F020F8084B094CA2
:102540001E46E41AA4100025A54204D056F82530F2
:1025500098470135F8E770BD6C0000206C00002042
:102560006C0000207000002003460244934202D019
:1025700003F8011BFAE77047FEE700BFF8B500BF9C
:10258000F8BC08BC9E467047F8B500BFF8BC08BC54
:102590009E46704701010507070304020302040673
:1025A00005060D0E0E0E0D0D0D0D0E0E0E0E0D0D63
:1025B00001010507070304020302040605060F10C4
:1025C00010100F0F0F0F101010100F0F0101050743
:1025D0000703040203020406050611121212111168
:1025E0001111121212121111010105070703040241
:1025F000030204060506131C1C1C131313131C1CD6
:102600001C1C131300010507060203010302040644
:1026100004051D1E1E1E1D1D1D1D1E1E1E1E1D1D14
:1026200000010507060203010302040604051F203A
:1026300020201F1F1F1F202020201F1F0101050712
:102640000703040203020406050621222222212197
:10265000212122222222212107050201030604232F
:102660002323232323230705020103060424242410
:1026700024242424070502010306042525252525F5
:1026800025250705020103060426262626262626DA
:102690000001070206272727272700000000000067
:1026A0000000131211100F0E0D0C00000000212568
:1026B000242601010304040203020D0E0D0D0E0D6C
:1026C0000E0E01010304040203020F100F0F100F7E
:1026D000101001010304040203021112111112115E
:1026E00012120101030404020302131C13131C132E
:1026F0001C1C00010203040103021D1E1D1D1E1DE2
:102700001E1E00010203040103021F201F1F201FC1
:10271000202001010304040203022122212122219D
:10272000222205070704040605060E0E0D0D0E0EE7
:102730000D0D050707040406050610100F0F1010F5
:102740000F0F0507070404060506121211111212D5
:10275000111105070704040605061C1C13131C1C95
:10276000131305070603040604051E1E1D1D1E1E69
:102770001D1D050706030406040520201F1F202039
:102780001F1F050707040406050622222121222215
:102790002121000001000000030040000C000000A7
:1027A0000000000000000000050000000000000024
:1027B00000C2010000050000001000000000000041
:0C27C000430000000C000020000000009E
:0827CC006CD9FF7F0100000041
:1027D400006CDC0200800000809FD5000000000037
:1027E40000000000000000000000000000000000E5
:1027F400000000000000000000000000C0270000EE
:1028040000000000000000000000000000000000C4
:1028140000000000000000000000000000000000B4
:1028240000000000000000000000000000000000A4
:102834000000000000000000000000000101000092
:08284400DD00000000000000AF
:04000003000001AD4B
:00000001FF
